S0160000436F6E74726F6C44434D6F746F722E7372656395
S11300000C942A000C943F000C943F000C943F0085
S11300100C943F000C943F000C943F000C943F0060
S11300200C943F000C943F000C943F000C943F0050
S11300300C943F000C943F000C943F000C943F0040
S11300400C943F000C943F000C943F000C943F0030
S11300500C943F0011241FBECFE5D4E0DEBFCDBF1A
S113006010E0A0E6B0E0ECEEFEE002C005900D92D8
S1130070A23BB107D9F70E940E020C9474070C94AA
S1130080000084B3806F84BB84B3807F84BB8FEF14
S113009085BB08950F931F93CF93DF93A8E6B0E039
S11300A040E050E001E010E085B3806F85BB95B37C
S11300B08C911296980102C0220F331F8A95E2F7A1
S11300C0822F8095892385BBE0E6F0E0C1E0D0E093
S11300D060E070E003C06F5F7F4F219683B320819F
S11300E0329690E0022E02C0959587950A94E2F725
S11300F080FD50C0C80102C0880F991F2A95E2F7FD
S11301009C0183B390E082239323892BD1F3413064
S11301105105C9F024F44115510541F03BC042306A
S11301205105F1F04330510541F134C061157105B9
S1130130E9F161307105E1F162307105D9F16330A3
S1130140710541F539C061157105C1F16130710561
S1130150B9F162307105B1F163307105D9F434C07D
S11301606115710599F16130710591F16230710584
S113017089F16330710571F42FC06115710571F156
S11301806130710569F16230710561F163307105A7
S113019069F52AC0C430D1050CF49DCF4F5F5F4F81
S11301A04430510509F080CF81E425C087E323C0A2
S11301B084E321C081E31FC083E61DC088E31BC024
S11301C085E319C082E317C080E315C089E313C037
S11301D086E311C083E30FC08DE30DC08FE20BC033
S11301E08AE209C08DE207C08BE205C0C430D105A4
S11301F00CF471CF81E4DF91CF911F910F91089599
S11302008A9A929A000000008BE49DE10197F1F72D
S113021000C00000929808951ABA81B3876081BB28
S11302209098919A0E9400018FEF8ABB919808954B
S1130230CF93C82F0E940C0190989198CBBB0E9439
S11302400001CF91089581E00E941801089583EC84
S113025099E00197F1F700C0000081B3876081BB8A
S11302608FEF8ABB82B3887F82BB87E893E10197D3
S1130270F1F700C000000E94230188E30E941801E6
S113028086E00E94180180E80E9418018CE00E9418
S113029018010895CF93C82F0E940C01909ACBBBEC
S11302A00E940001CF9108950F931F93CF93DF9382
S11302B08C01C0E0D0E014C00E944A012196C031F4
S11302C0D10521F480EC0E9418010AC0C032D10586
S11302D039F40E94230180E80E941801C0E0D0E0B4
S11302E0F80181918F018111E7CFDF91CF911F91A7
S11302F00F9108958F929F92AF92BF92CF92DF9207
S1130300EF92FF920F931F93CF93DF93CDB7DEB796
S113031060970FB6F894DEBF0FBECDBF6B017C01B2
S113032020E030E0A9010E94BE0288235CF020E0B6
S113033030E0A901C701B6010E94BE02882344F43B
S113034010E201C01DE2F7FAF094F7F8F09401C04E
S113035010E2C701B6010E9435034B015C01072E70
S1130360000C880B990B0E946D039B01AC01C70123
S1130370B6010E94510220E030E543EC57E40E94AC
S11303801D040E9435037F936F939F928F921F9257
S11303901F9384E790E09F938F938E010F5F1F4F0D
S11303A01F930F930E948A04C8010E9454010FB640
S11303B0F894DEBF0FBECDBF60960FB6F894DEBFD3
S11303C00FBECDBFDF91CF911F910F91FF90EF90A2
S11303D0DF90CF90BF90AF909F908F900895C09A78
S11303E01816190684F420E030E04FE35DE063E082
S11303F0415050406040E1F700C000002F5F3F4F84
S11304008217930791F7C0988FE39DE023E0815012
S113041090402040E1F700C0000008950E94410090
S11304200E942701B89A8EE790E00E94540187EA5F
S113043091E60197F1F700C000000E944A00813460
S113044091F3682F70E0EB01E097CE010E94EF0179
S1130450BE01DD0F880B990B0E946D036B017C01BB
S113046020E030E040E85FE30E9452029B01AC01CF
S1130470C701B6010E94C3026B017C018FE990E0C1
S11304800E9454010E942301C701B6010E947A010F
S113049087EA91E60197F1F700C000000E9423016A
S11304A0C2CF5058BB27AA270E9469020C94E303C9
S11304B00E94D50338F00E94DC0320F039F49F3FFA
S11304C019F426F40C94D2030EF4E095E7FB0C9493
S11304D0CC03E92F0E94F40358F3BA176207730799
S11304E08407950720F079F4A6F50C9416040EF40D
S11304F0E0950B2EBA2FA02D0B01B90190010C0130
S1130500CA01A0011124FF27591B99F0593F50F447
S1130510503E68F11A16F040A22F232F342F44279F
S1130520585FF3CF469537952795A795F040539597
S1130530C9F77EF41F16BA0B620B730B840BBAF067
S11305409150A1F0FF0FBB1F661F771F881FC2F7D2
S11305500EC0BA0F621F731F841F48F487957795E6
S11305606795B795F7959E3F08F0B0CF9395880FA0
S113057008F09927EE0F9795879508950E94A80390
S113058008F481E008950E94D7020C94E3030E94CA
S1130590DC0358F00E94D50340F029F45F3F29F0B2
S11305A00C94CC0351110C9417040C94D2030E94A4
S11305B0F40368F39923B1F3552391F3951B550B79
S11305C0BB27AA2762177307840738F09F5F5F4F22
S11305D0220F331F441FAA1FA9F335D00E2E3AF061
S11305E0E0E832D091505040E695001CCAF72BD079
S11305F0FE2F29D0660F771F881FBB1F26173707CA
S11306004807AB07B0E809F0BB0B802DBF01FF27FB
S113061093585F4F3AF09E3F510578F00C94CC0309
S11306200C9417045F3FE4F3983ED4F386957795D2
S11306306795B795F7959F5FC9F7880F911D9695B4
S1130640879597F90895E1E0660F771F881FBB1F10
S1130650621773078407BA0720F0621B730B840BBD
S1130660BA0BEE1F88F7E09508950E943C03689446
S1130670B1110C94170408950E94FC0388F09F574D
S113068098F0B92F9927B751B0F0E1F0660F771FB2
S1130690881F991F1AF0BA95C9F714C0B13091F0A8
S11306A00E941604B1E008950C941604672F782F65
S11306B08827B85F39F0B93FCCF38695779567956D
S11306C0B395D9F73EF490958095709561957F4FD9
S11306D08F4F9F4F0895E89409C097FB3EF490957F
S11306E08095709561957F4F8F4F9F4F9923A9F007
S11306F0F92F96E9BB279395F69587957795679596
S1130700B795F111F8CFFAF4BB0F11F460FF1BC0D9
S11307106F5F7F4F8F4F9F4F16C0882311F096E96C
S113072011C0772321F09EE8872F762F05C066231A
S113073071F096E8862F70E060E02AF09A95660FD3
S1130740771F881FDAF7880F9695879597F908958C
S1130750990F0008550FAA0BE0E8FEEF16161706CE
S1130760E807F907C0F012161306E407F50798F036
S1130770621B730B840B950B39F40A2661F0232B4F
S1130780242B252B21F408950A2609F4A140A695CB
S11307908FEF811D811D089597F99F6780E870E0B0
S11307A060E008959FEF80EC089500240A941616E3
S11307B0170618060906089500240A94121613064B
S11307C0140605060895092E0394000C11F48823D9
S11307D052F0BB0F40F4BF2B11F460FF04C06F5FF5
S11307E07F4F8F4F9F4F089557FD9058440F551FCB
S11307F059F05F3F71F04795880F97FB991F61F09F
S11308009F3F79F087950895121613061406551F15
S1130810F2CF4695F1DF08C0161617061806991F81
S1130820F1CF86957105610508940895E894BB2776
S113083066277727CB0197F908950E9430040C941A
S1130840E3030E94D50338F00E94DC0320F09523D3
S113085011F00C94CC030C94D20311240C941704BF
S11308600E94F40370F3959FC1F3950F50E0551F58
S1130870629FF001729FBB27F00DB11D639FAA27F1
S1130880F00DB11DAA1F649F6627B00DA11D661F40
S1130890829F2227B00DA11D621F739FB00DA11D61
S11308A0621F839FA00D611D221F749F3327A00D1B
S11308B0611D231F849F600D211D822F762F6A2FB7
S11308C011249F5750409AF0F1F088234AF0EE0F1C
S11308D0FF1FBB1F661F771F881F91505040A9F749
S11308E09E3F510580F00C94CC030C9417045F3F99
S11308F0E4F3983ED4F3869577956795B795F79585
S1130900E7959F5FC1F7FE2B880F911D96958795FC
S113091097F90895AEE0B0E0E0E9F4E00C944B07F9
S11309200D891E8986E08C831A8309838FEF9FE7E4
S11309309E838D83AE01475E5F4F6F89788DCE01B4
S113094001960E94AC04EF81F885E00FF11F10823C
S11309502E96E4E00C946707ABE0B0E0E2EBF4E041
S11309600C943D076C017B018A01FC0117821682FD
S1130970838181FFCCC1CE0101963C01F6019381B4
S1130980F70193FD859193FF81917F01882309F4F9
S1130990BAC1853239F493FD859193FF81917F012A
S11309A0853229F4B60190E00E94A306E7CF912C8A
S11309B0212C312CFFE1F315D8F08B3279F038F487
S11309C0803279F08332A1F4232D20611DC08D3251
S11309D061F0803369F4232D216016C0832D826079
S11309E0382EE32DE4603E2E2AC0F32DF8601DC09E
S11309F037FC2DC020ED280F2A3040F08E32B9F498
S1130A0036FC81C1232D2064322E19C036FE06C067
S1130A108AE0989E200D1124922E11C0EAE02E9EA9
S1130A20200D1124222EF32DF0623F2E08C08C36A7
S1130A3021F4832D8068382E02C0883641F4F701F2
S1130A4093FD859193FF81917F018111B3CF982FFD
S1130A509F7D9554933028F40C5F1F4F9FE3998337
S1130A600DC0833631F0833771F0833509F059C0F6
S1130A7021C0F801808189830E5F1F4F88248394ED
S1130A80912C530113C02801F2E04F0E511CF801C0
S1130A90A080B18036FE03C0692D70E002C06FEF04
S1130AA07FEFC5010E9498064C018201F32DFF7768
S1130AB03F2E16C0280122E0420E511CF801A080EE
S1130AC0B18036FE03C0692D70E002C06FEF7FEF86
S1130AD0C5010E948D064C01F32DF0683F2E820162
S1130AE033FC1BC0822D90E088169906B0F4B60141
S1130AF080E290E00E94A3062A94F4CFF50137FC2B
S1130B00859137FE81915F01B60190E00E94A306B2
S1130B1021102A9421E0821A91088114910471F71A
S1130B20E8C0843611F0893641F5F80137FE07C074
S1130B3060817181828193810C5F1F4F08C0608145
S1130B407181072E000C880B990B0E5F1F4FF32D3C
S1130B50FF763F2E97FF09C090958095709561951B
S1130B607F4F8F4F9F4FF0683F2E2AE030E0A30164
S1130B700E94DF06882E861845C0853731F4232D60
S1130B802F7EB22E2AE030E025C0932D997FB92E16
S1130B908F36C1F018F4883579F0B5C0803719F074
S1130BA0883721F0B0C0E92FE061BE2EB4FE0DC03D
S1130BB0FB2DF460BF2E09C034FE0AC0292F266025
S1130BC0B22E06C028E030E005C020E130E002C0CB
S1130BD020E132E0F801B7FE07C0608171818281B3
S1130BE093810C5F1F4F06C06081718180E090E0AB
S1130BF00E5F1F4FA3010E94DF06882E8618FB2D6F
S1130C00FF773F2E36FE0DC0232D2E7FA22E891492
S1130C1058F434FE0BC032FC09C0832D8E7EA82EFE
S1130C2005C0B82CA32C03C0B82C01C0B92CA4FE59
S1130C300FC0FE01E80DF11D8081803321F49A2D4F
S1130C40997EA92E09C0A2FE06C0B394B39404C031
S1130C508A2D867809F0B394A3FC11C0A0FE06C0C7
S1130C60B21488F4280C922C9B180EC0B21460F4B1
S1130C70B60180E290E00E94A306B394F7CFB214C9
S1130C8018F42B1802C0982C212CA4FE10C0B60115
S1130C9080E390E00E94A306A2FE17C0A1FC03C05B
S1130CA088E790E002C088E590E0B6010CC08A2D88
S1130CB0867859F0A1FE02C08BE201C080E2A7FC55
S1130CC08DE2B60190E00E94A306891438F4B601BF
S1130CD080E390E00E94A3069A94F7CF8A94F301EC
S1130CE0E80DF11D8081B60190E00E94A3068110F9
S1130CF0F5CF222009F442CEB60180E290E00E94B2
S1130D00A3062A94F6CFF6018681978102C08FEF5D
S1130D109FEF2B96E2E10C945907FC01059061507A
S1130D2070400110D8F7809590958E0F9F1F0895FD
S1130D30FC016150704001900110D8F780959095A6
S1130D408E0F9F1F08950F931F93CF93DF93FB0183
S1130D50238121FD03C08FEF9FEF2CC022FF16C01B
S1130D6046815781248135814217530744F4A08179
S1130D70B1819D012F5F3F4F318320838C93268166
S1130D8037812F5F3F4F3783268314C08B01EC01DB
S1130D90FB010084F185E02D0995892BE1F6D8014A
S1130DA016968D919C911797019617969C938E9306
S1130DB01697CE01DF91CF911F910F910895FA01FB
S1130DC0AA27283051F1203181F1E8946F936E7F86
S1130DD06E5F7F4F8F4F9F4FAF4FB1E03ED0B4E077
S1130DE03CD0670F781F891F9A1FA11D680F791FB8
S1130DF08A1F911DA11D6A0F711D811D911DA11DC9
S1130E0020D009F468943F912AE0269F11243019D8
S1130E10305D3193DEF6CF010895462F4770405D73
S1130E204193B3E00FD0C9F7F6CF462F4F70405D22
S1130E304A3318F0495D31FD4052419302D0A9F77D
S1130E40EACFB4E0A6959795879577956795BA9577
S1130E50C9F700976105710508959B01AC010A2E3D
S1130E6006945795479537952795BA95C9F7620F14
S1130E70731F841F951FA01D08952F923F924F92B8
S1130E805F926F927F928F929F92AF92BF92CF9216
S1130E90DF92EF92FF920F931F93CF93DF93CDB71F
S1130EA0DEB7CA1BDB0B0FB6F894DEBF0FBECDBF97
S1130EB009942A88398848885F846E847D848C8468
S1130EC09B84AA84B984C884DF80EE80FD800C8171
S1130ED01B81AA81B981CE0FD11D0FB6F894DEBF54
S10F0EE00FBECDBFED010895F894FFCFC4
S1130EEC00000100020003000400050006000700D6
S1130EFC25326400256325642E2530356400454E67
S1130F0C544552204E554D42455220544F20434F88
S1130F1C4E54524F4C204443204D4F544F52005486
S1130F2C48452044555459204359434C45203D20B1
S1050F3C0000AF
S9030000FC
